:100000000C9434000C9451000C9451000C94510049
:100010000C9451000C9451000C9451000C9451001C
:100020000C9451000C9451000C9451000C9451000C
:100030000C9451000C9451000C9451000C945100FC
:100040000C9451000C9451000C9453000C945100EA
:100050000C9451000C9451000C9451000C945100DC
:100060000C9451000C94510011241FBECFEFD8E026
:10007000DEBFCDBF11E0A0E0B1E0EEE1F2E002C0F2
:1000800005900D92AC30B107D9F721E0ACE0B1E0BA
:1000900001C01D92AD30B207E1F70E94CB000C9475
:1000A0000D010C9400001F920F920FB60F921124B5
:1000B0008F93F8948091C60080930C01803309F4EB
:1000C00015B880910C01813311F480E285B97894E0
:1000D0008F910F900FBE0F901F9018951092C50032
:1000E00088E68093C4001092C00088E98093C10024
:1000F0008EE08093C20078940895E0ECF0E0908167
:1001000095FFFDCF8093C600089585E08093B800E9
:100110001092B900089584EA8093BC00ECEBF0E003
:1001200080818823ECF7089584E88093BC00ECEB91
:10013000F0E080818823ECF78091BB00089584EC87
:100140008093BC00ECEBF0E080818823ECF7809199
:10015000BB0008958093BB0084E88093BC00ECEB67
:10016000F0E080818823ECF708950F931F93CF93DD
:10017000FC018081882359F08F01C0E00E94AA0011
:10018000CF5FF801EC0FF11D80818111F7CFCF9186
:100190001F910F9108958FEF84B980E380930C0134
:1001A0000E946E000E9485000F2EFCEBEF2EF12CBA
:1001B000F02D14E90E948B0082EA0E94AA0080E0E0
:1001C0000E94AA0080E091E00E94B500F701108330
:1001D000FFE322E48FE0F15020408040E1F700C0CF
:1001E00000000E948B0082EA0E94AA0080E00E9428
:1001F000AA000E948B0083EA0E94AA00C9E0D0E016
:100200000E949F000E947D002197D1F70E949400D8
:0E0210000E947D00F7011083CDCFF894FFCF40
:0C021E0068656C6C6F20776F726C640078
:00000001FF
