:100000000C9434000C9449000C9449000C94490061
:100010000C9449000C9449000C9449000C9449003C
:100020000C9449000C9449000C9449000C9449002C
:100030000C9449000C9449000C9449000C9449001C
:100040000C9449000C9449000C944B000C9449000A
:100050000C9449000C9449000C9449000C944900FC
:100060000C9449000C94490011241FBECFEFD8E036
:10007000DEBFCDBF11E0A0E0B1E0EEE6F1E002C0EE
:1000800005900D92A231B107D9F70E94A6000C94F9
:10009000B5000C9400001F920F920FB60F9211241E
:1000A0008F939F93F8948091C60090E080339105E0
:1000B00011F415B804C0C19711F480E285B97894A1
:1000C00018959F918F910F900FBE0F901F901895CC
:1000D0001092C50088E68093C4001092C00088E9A1
:1000E0008093C1008EE08093C20078940895E0EC84
:1000F000F0E0908195FFFDCF8093C60008950F93A7
:100100001F93CF938C01FC018081882359F0C0E0BC
:1001100090E00E947700CF5FF801EC0FF11D808125
:100120008111F6CF8AE090E00E947700CF911F9175
:100130000F9108952D9B05C080E091E00E947F0003
:10014000089588E091E00E947F0008950E94680071
:10015000259A1AB84A9BFECF0E949A004A99FECF70
:0E01600080E197E20197F1F7F5CFF894FFCF19
:10016E006C6564206F6E20006C6564206F6666207F
:02017E0000007F
:00000001FF
