:100000000C9434000C9451000C9451000C94510049
:100010000C9451000C9451000C9451000C9451001C
:100020000C9451000C94C9020C9451000C94510092
:100030000C9451000C946D040C9451000C945100DC
:100040000C94A0020C9451000C9404050C945100E3
:100050000C9451000C9451000C9451000C945100DC
:100060000C9451000C94510011241FBECFEFD8E026
:10007000DEBFCDBF11E0A0E0B1E0E8EEF3E102C0E9
:1000800005900D92A031B107D9F721E0A0E1B1E0D0
:1000900001C01D92A533B207E1F70E9463070C94DB
:1000A000F2090C94000085E08093B8001092B9002A
:1000B000089584EA8093BC00ECEBF0E08081882313
:1000C000ECF7089584E88093BC00ECEBF0E08081CD
:1000D0008823ECF78091BB00089584EC8093BC00EA
:1000E000ECEBF0E080818823ECF78091BB00089571
:1000F0008093BB0084E88093BC00ECEBF0E080814F
:100100008823ECF708958A3030F020E08A502F5F82
:100110008A30E0F701C020E090E1299F900111248E
:10012000822B08951F93CF93DF93C82FD62F142FC0
:100130000E94590080ED0E94780080E00E947800C3
:10014000812F0E9483000E9478008D2F0E948300DF
:100150000E9478008C2F0E9483000E94780084E91E
:100160008093BC00DF91CF911F9108950F931F934F
:10017000CF93DF93C82FD62F142F022F0E94590040
:1001800080ED0E94780083E00E947800802F0E941A
:1001900083000E947800812F0E9483000E947800D3
:1001A0008D2F0E9483000E9478008C2F0E94830074
:1001B0000E94780084E98093BC00DF91CF911F9169
:1001C0000F910895FF920F931F93CF93DF930E9497
:1001D000590080ED0E94780080E00E9478000CEBCE
:1001E00010E00F2EF4E9FF2EF02DF801F0820E94AE
:1001F000590081ED0E9478000E946D00D82F0E9466
:100200006D00C82F0E946200F801F0829D2F929528
:100210009F70990F292F220F220F920FDF70D90F95
:10022000D09324019C2F92959F70990F292F220F14
:10023000220F920FCF70C90FC0930D01982F929586
:100240009F70990F292F220F220F920F8F70890F05
:1002500080930E01DF91CF911F910F91FF90089530
:10026000EF92FF920F931F93CF93DF930E94590059
:1002700080ED0E94780083E00E9478000CEB10E093
:100280000F2EF4E9FF2EF02DF801F0820E945900A4
:1002900081ED0E9478000E946D00E82E0E946D00A2
:1002A000D82F0E946D00C82F0E946200F801F082D2
:1002B000E09208019D2F9695969596959E70292F10
:1002C000220F220F920FDF70D90FD0930C019C2FB9
:1002D0009695969596959E70292F220F220F920F34
:1002E000CF70C90FC0930B01282F22952F70277054
:1002F00030E0A901440F551F220F331F220F331F77
:10030000220F331F240F351F8F70280F311D30939C
:100310000A0120930901DF91CF911F910F91FF9066
:10032000EF9008951F93CF93DF930E94590080EDC3
:100330000E94780081E10E947800CCEBD0E014E9C3
:1003400018830E94590081ED0E9478000E9462008B
:10035000809322011883DF91CF911F910895282F58
:1003600090911A0191110FC08DEC689F812D11247D
:10037000869586958695880F982F990F990F890FE6
:10038000681B862F089580911A01813041F48DEC0D
:10039000689F812D11248695869586950895809174
:1003A0001A01823089F46DEC269F612D1124862F6D
:1003B000869586958695682F660F862F880F880FFD
:1003C000860F281B822F089580911A01833041F4F3
:1003D0009DEC299F812D11248695869586950895FB
:1003E00080911A01843031F480911A018BB11BB8CD
:1003F00080E0089580911A01853031F480911A01CE
:100400008BB11BB880E0089580911A01863019F4F1
:100410002C9880E0089580911A01873019F42D9A64
:1004200080E0089580E008959C0190911A01911157
:1004300010C04F3F8FEF580731F480911A018BB1F4
:100440001BB880E00895CA016AE070E00E94CA0902
:10045000089580911A01813089F44F3F8FEF58073A
:1004600031F480911A018BB11BB880E00895CA0164
:100470006AE070E00E94CA09862F089580911A01EF
:10048000823081F46F3F8FEF780731F480911A0149
:100490008BB11BB880E00895CB016AE070E00E9448
:1004A000CA09089580911A01833089F46F3F8FEF54
:1004B000780731F480911A018BB11BB880E0089560
:1004C000CB016AE070E00E94CA09862F08958091EE
:1004D0001A01843081F42F3F8FEF380731F4809177
:1004E0001A018BB11BB880E00895C9016AE070E081
:1004F0000E94CA09089580911A01853089F42F3F1E
:100500008FEF380731F480911A018BB11BB880E06E
:100510000895C9016AE070E00E94CA09862F089513
:1005200080911A01863019F42C9A80E00895809108
:100530001A01873019F42D9A80E0089580E008951B
:100540001F920F920FB60F9211248F93F8948091FF
:100550001401811106C080911401809580931401CB
:1005600011C080911301823040F080911401809578
:10057000809314011092130105C0809113018F5FC5
:100580008093130178948F910F900FBE0F901F905E
:1005900018951F920F920FB60F9211242F933F932D
:1005A0004F935F936F937F938F939F93AF93BF937B
:1005B000EF93FF93F8948BB183708BB985B1807CF6
:1005C00085B980911A01863008F0F7C08091180132
:1005D000882309F465C080911401882309F460C060
:1005E00080911701882321F0809117018330B1F4A5
:1005F00080911A01882321F080911A01813071F4D1
:1006000020911A013BB12E5F81E090E002C0880F7B
:10061000991F2A95E2F7832B8BB9CFC080911701E0
:10062000813041F080911701843021F080911701D1
:100630008630B1F480911A01823021F080911A0144
:10064000833071F420911A013BB12E5F81E090E07C
:1006500002C0880F991F2A95E2F7832B8BB9ADC092
:1006600080911701823029F080911701853009F0BF
:10067000A4C080911A01843029F080911A0185303C
:1006800009F09BC020911A013BB12E5F81E090E000
:1006900002C0880F991F2A95E2F7832B8BB98DC072
:1006A00080911901843009F05FC08091060190911A
:1006B0000701019609F458C080911401882309F4B8
:1006C00053C08091060190910701892BA9F4809174
:1006D0001A01882321F080911A01813069F4209158
:1006E0001A013BB12E5F81E090E002C0880F991F94
:1006F0002A95E2F7832B8BB980910601909107012F
:100700000197A9F480911A01823021F080911A0199
:10071000833069F420911A013BB12E5F81E090E0B3
:1007200002C0880F991F2A95E2F7832B8BB980911D
:10073000060190910701029709F03FC080911A01CC
:10074000843021F080911A018530B9F520911A0189
:100750003BB12E5F81E090E002C0880F991F2A957F
:10076000E2F7832B8BB929C0809119018430C1F441
:1007700080911B01811114C080911401882381F0A4
:1007800020911A013BB12E5F81E090E002C0880FFA
:10079000991F2A95E2F78095909583238BB90DC018
:1007A00020911A013BB12E5F81E090E002C0880FDA
:1007B000991F2A95E2F7832B8BB98091190181113A
:1007C0000FC04091240160910D0180910E0150E015
:1007D00070E090E00E94140295B1892B85B95DC04C
:1007E00080911901813081F44091090150910A01F1
:1007F00060910B0180910C0170E090E00E94140266
:1008000095B1892B85B949C080911901823051F485
:1008100060912201809108010E94AF0195B1892B5E
:1008200085B93BC080911901833011F580911C017D
:10083000882379F040911F0160911E0180911D0174
:1008400050E070E090E00E94140295B1892B85B9C8
:1008500024C04091200160911F0180911E0150E051
:1008600070E090E00E94140295B1892B85B915C003
:1008700080911901843089F440910401509105015F
:10088000609102017091030180910001909101013A
:100890000E94140295B1892B85B980911A018F5F4E
:1008A00080931A0180911A01883011F410921A0174
:1008B00088EC8093B2007894FF91EF91BF91AF9153
:1008C0009F918F917F916F915F914F913F912F9168
:1008D0000F900FBE0F901F9018951F920F920FB69A
:1008E0000F9211242F933F934F935F936F937F93B6
:1008F0008F939F93AF93BF93EF93FF93F8940E94CE
:10090000E2000E9430010E9492018091210188231F
:1009100029F0809120018F5F809320018091200138
:10092000843641F51092200180911F018F5F8093E2
:100930001F0180911F018C33E9F410921F018091F7
:100940001E018F5F80931E0180911E018C3391F4F4
:1009500010921E0181E080931C0180911D018F5F28
:1009600080931D0180911D01843621F410921D0198
:1009700010921C0180911B01882309F180910E01C6
:10098000209100013091010190E082179307B9F4A2
:1009900080910D01209102013091030190E08217B6
:1009A000930769F48091240120910401309105019D
:1009B00090E08217930719F481E0809323018091DE
:1009C0001901833021F080912101882339F081E4DD
:1009D00094EB909385008093840004C0109285006E
:1009E000109284007894FF91EF91BF91AF919F9105
:1009F0008F917F916F915F914F913F912F910F90C8
:100A00000FBE0F901F9018951F920F920FB60F9266
:100A100011248F939F93EF93FF93F8949091C600C6
:100A2000809110018031B0F4E0911201F0E0EB5DB3
:100A3000FE4F9083809110018F5F80931001809111
:100A400012018F5F8093120180911201803111F4A5
:100A5000109212017894FF91EF919F918F910F90D6
:100A60000FBE0F901F9018951092C50088E68093D6
:100A7000C40082E08093C00088E98093C10086E0D2
:100A80008093C20078940895E0ECF0E0908195FFA7
:100A9000FDCF8093C600089580911901843031F014
:100AA000809119018F5F80931901089510921901A7
:100AB000089580911701863019F41092170105C02E
:100AC000809117018F5F8093170180911701833008
:100AD00018F410921901089580911701863020F4BE
:100AE00081E080931901089580911701863019F4EF
:100AF00082E080931901089580911701811116C039
:100B0000809124018B3351F04091240160910D01BB
:100B100080910E014F5F0E949200089560910D0137
:100B200080910E0140E00E9492000895809117018B
:100B30008130B1F480910D018B3351F0409124014B
:100B400060910D0180910E016F5F0E9492000895E7
:100B50004091240180910E0160E00E94920008956E
:100B6000809117018230B1F480910E01873151F0EC
:100B70004091240160910D0180910E018F5F0E94D0
:100B80009200089540910E0160910D0180E00E9455
:100B900092000895809117018330F9F48091090142
:100BA00090910A018336910571F0209108014091DE
:100BB0000C0160910B018091090190910A018F5FF6
:100BC0000E94B60008952091080140910C016091A7
:100BD0000B0180E00E94B6000895809117018430D7
:100BE000F1F480910B018C3071F02091080140915B
:100BF0000C0160910B018091090190910A016F5FD6
:100C00000E94B60008952091080140910C01809146
:100C1000090190910A0161E00E94B6000895809157
:100C20001701853009F092C080910B018130C1F02D
:100C300080910B018330A1F080910B01853081F010
:100C400080910B01873061F080910B01883041F079
:100C500080910B018A3021F080910B018C3081F45E
:100C600080910C018F3161F42091080160910B019A
:100C70008091090190910A0141E00E94B600089517
:100C800080910B01843061F080910B01863041F03E
:100C900080910B01893021F080910B018B3081F420
:100CA00080910C018E3161F42091080160910B015B
:100CB0008091090190910A0141E00E94B6000895D7
:100CC00080910B018230C1F48091090190910A0159
:100CD00083709927892B81F480910C018D3161F407
:100CE0002091080160910B018091090190910A0106
:100CF00041E00E94B600089580910B018230C1F45A
:100D00008091090190910A0183709927892B81F0C4
:100D100080910C018C3161F42091080160910B01EC
:100D20008091090190910A0141E00E94B600089566
:100D30002091080140910C0160910B018091090103
:100D400090910A014F5F0E94B600089580911701AB
:100D50008630E9F480910801873071F02091080114
:100D600040910C0160910B018091090190910A0161
:100D70002F5F0E94B600089540910C0160910B0115
:100D80008091090190910A0121E00E94B600089526
:100D90008091060190910701892BA9F480910401AB
:100DA00090910501CB9729F410920501109204014E
:100DB0000895809104019091050101969093050199
:100DC0008093040108958091060190910701019795
:100DD000A9F48091020190910301CB9729F410921C
:100DE0000301109202010895809102019091030184
:100DF000019690930301809302010895809106016A
:100E0000909107010297A1F4809100019091010156
:100E1000479729F4109201011092000108958091E2
:100E200000019091010101969093010180930001CE
:100E30000895439A89EF90E00197F1F700C0000010
:100E4000439808953BC0439A2FED82E292E02150EF
:100E500080409040E1F700C0000043982FE38DE010
:100E600093E0215080409040E1F700C00000439A99
:100E70002FED82E292E0215080409040E1F700C0E7
:100E8000000043982FE382E49FE02150804090408F
:100E9000E1F700C00000309902C0329B0FC01092F1
:100EA00023013099FECF3299FECF2FE986E891E0F9
:100EB000215080409040E1F700C000008091230164
:100EC0008111C1CF08958FEF8AB91BB88FE384B920
:100ED00015B888EF87B983E085BD81E080936E0007
:100EE00092E09093810080936F0096E09093B10020
:100EF000809370008AEF8093B2000E9434050E94B4
:100F000053007894C12CD12C760100E010E0992494
:100F1000939466246A94762CBB24B394A12C0E94EB
:100F2000220780911901882329F02FEFC21AD20AD3
:100F3000E20AF20AC11482E1D8068AE7E806F1045F
:100F400029F410921901C12CD12C7601309B0FC0CD
:100F50000E9419070E944C053099FECF87EA91E65E
:100F60000197F1F700C00000C12CD12C7601329B13
:100F700010C10E94190780911901833029F58091D1
:100F8000210180958093210117C08FE493EC019794
:100F9000F1F700C000000F5F1F4F093C110560F022
:100FA0001092210110921E0110921F011092200137
:100FB00010921D0110921C013299E7CFC12CD12C47
:100FC000760100E010E0E5C080911901843009F05D
:100FD00092C08091000190910101019661F0809191
:100FE000020190910301019631F0809104019091EA
:100FF0000501019661F41092010110920001109216
:101000000301109202011092050110920401329B1B
:1010100004C00F5F1F4F3299FCCF093883E11807D6
:1010200098F090921B019FE926E881E091502040C2
:101030008040E1F700C000000E941907C12CD12CAC
:10104000760100E010E0A5C080E090E0DC01329B7A
:1010500028C00E941907809106019091070102970C
:1010600029F4109207011092060109C0809106012F
:1010700090910701019690930701809306013299A0
:10108000FECF9FE926E881E0915020408040E1F7C3
:1010900000C00000309907C081E090E0A0E0B0E01F
:1010A000D6CF309B11C00E9419070E94C806309904
:1010B000FECF8FE493EC0197F1F700C0000081E0D0
:1010C00090E0A0E0B0E0C3CF0196A11DB11D803437
:1010D0002BE492072CE4A207B10509F0B8CF1092D7
:1010E0001801109217017092070160920601C12C3D
:1010F000D12C76014EC090921801109219013299AC
:10110000FECF8FE996E821E0815090402040E1F742
:1011100000C0000080E090E0DC01329B16C00E941D
:1011200019070E9459053299FECF8FE996E821E010
:10113000815090402040E1F700C00000309907C086
:1011400081E090E0A0E0B0E0E8CF309B11C00E94C9
:1011500019070E947C053099FECF8FE493EC01972C
:10116000F1F700C0000081E090E0A0E0B0E0D5CF52
:101170000196A11DB11D80342BE492072CE4A20737
:10118000B10559F61092180110921701C12CD12CFB
:10119000760180911001882309F469C0E091110162
:1011A000F0E0EB5DFE4F808190E09093160180931C
:1011B00015018091100181508093100180911101DF
:1011C0008F5F8093110180911101803111F4109291
:1011D000110187EA91E60197F1F700C00000C0E035
:1011E000D0E040C0E0911101F0E0EB5DFE4FE08106
:1011F000F0E0F0976091100170E0615071091616EF
:101200001706ACF420E030E08B2D9A2DAC01440F92
:10121000551F880F991F880F991F880F991F840FDA
:10122000951F2F5F3F4F2617370784F302C08B2D82
:101230009A2DE89F9001E99F300DF89F300D112401
:10124000C20FD31F809110018150809310018091B3
:1012500011018F5F8093110180911101803111F490
:1012600010921101809110018111BCCF02C0C0E029
:10127000D0E08091150190911601892B31F0809179
:101280001501909116010E944405809115019091DD
:1012900016018337910541F460910D0180910E0193
:1012A0004C2F0E94920071C08091150190911601FF
:1012B0008836910541F44091240160910D018C2FF5
:1012C0000E94920062C080911501909116018D36A6
:1012D000910541F44091240180910E016C2F0E94F0
:1012E000920053C0809115019091160187379105A6
:1012F00061F440910C0160910B0180910901909182
:101300000A012C2F0E94B60040C0809115019091D7
:1013100016018937910551F42091080140910C0183
:1013200060910B018C2F0E94B6002FC08091150197
:10133000909116018D34910561F42091080140913E
:101340000C018091090190910A016C2F0E94B60056
:101350001CC080911501909116018436910561F4AD
:101360002091080160910B018091090190910A017F
:101370004C2F0E94B60009C0809115019091160172
:101380008437910511F4C09319011092160110923F
:101390001501C5CD97FB072E16F4009407D077FDF5
:1013A00009D00E94DE0907FC05D03EF49095819596
:1013B0009F4F0895709561957F4F0895AA1BBB1BA1
:1013C00051E107C0AA1FBB1FA617B70710F0A61B45
:1013D000B70B881F991F5A95A9F780959095BC0166
:0813E000CD010895F894FFCF40
:1013E800FFFFFFFFFFFFFFFF03E3070C0B211200C6
:00000001FF
