:100000000C9434000C9451000C9451000C94510049
:100010000C9451000C9451000C9451000C9451001C
:100020000C9451000C9484020C9451000C945100D7
:100030000C9451000C9484030C9451000C945100C6
:100040000C9451000C9451000C94E9030C94510051
:100050000C9451000C9451000C9451000C945100DC
:100060000C9451000C94510011241FBECFEFD8E026
:10007000DEBFCDBF11E0A0E0B1E0ECE5FDE002C0E5
:1000800005900D92A830B107D9F721E0A8E0B1E0C2
:1000900001C01D92A932B207E1F70E9461040C94DD
:1000A000AC060C94000085E08093B8001092B90073
:1000B000089584EA8093BC00ECEBF0E08081882313
:1000C000ECF7089584E88093BC00ECEBF0E08081CD
:1000D0008823ECF78091BB00089584EC8093BC00EA
:1000E000ECEBF0E080818823ECF78091BB00089571
:1000F0008093BB0084E88093BC00ECEBF0E080814F
:100100008823ECF708958A3030F020E08A502F5F82
:100110008A30E0F701C020E090E1299F900111248E
:10012000822B08951F93CF93DF93C82FD62F142FC0
:100130000E94590080ED0E94780080E00E947800C3
:10014000812F0E9483000E9478008D2F0E948300DF
:100150000E9478008C2F0E9483000E94780084E91E
:100160008093BC00DF91CF911F9108950F931F934F
:10017000CF93DF93C82FD62F142F022F0E94590040
:1001800080ED0E94780083E00E947800802F0E941A
:1001900083000E947800812F0E9483000E947800D3
:1001A0008D2F0E9483000E9478008C2F0E94830074
:1001B0000E94780084E98093BC00DF91CF911F9169
:1001C0000F910895FF920F931F93CF93DF930E9497
:1001D000590080ED0E94780080E00E9478000CEBCE
:1001E00010E00F2EF4E9FF2EF02DF801F0820E94AE
:1001F000590081ED0E9478000E946D00D82F0E9466
:100200006D00C82F0E946200F801F0829D2F929528
:100210009F70990F292F220F220F920FDF70D90F95
:10022000D09318019C2F92959F70990F292F220F20
:10023000220F920FCF70C90FC0930501982F92958E
:100240009F70990F292F220F220F920F8F70890F05
:1002500080930601DF91CF911F910F91FF90089538
:10026000EF92FF920F931F93CF93DF930E94590059
:1002700080ED0E94780083E00E9478000CEB10E093
:100280000F2EF4E9FF2EF02DF801F0820E945900A4
:1002900081ED0E9478000E946D00E82E0E946D00A2
:1002A000D82F0E946D00C82F0E946200F801F082D2
:1002B000E09200019D2F9695969596959E70292F18
:1002C000220F220F920FDF70D90FD09304019C2FC1
:1002D0009695969596959E70292F220F220F920F34
:1002E000CF70C90FC0930301282F22952F7027705C
:1002F00030E0A901440F551F220F331F220F331F77
:10030000220F331F240F351F8F70280F311D30939C
:10031000020120930101DF91CF911F910F91FF9076
:10032000EF9008951F93CF93DF930E94590080EDC3
:100330000E94780081E10E947800CCEBD0E014E9C3
:1003400018830E94590081ED0E9478000E9462008B
:10035000809317011883DF91CF911F910895282F63
:100360009091110191110FC08DEC689F812D112486
:10037000869586958695880F982F990F990F890FE6
:10038000681B862F089580911101813041F48DEC16
:10039000689F812D11248695869586950895809174
:1003A0001101823089F46DEC269F612D1124862F76
:1003B000869586958695682F660F862F880F880FFD
:1003C000860F281B822F089580911101833041F4FC
:1003D0009DEC299F812D11248695869586950895FB
:1003E00080911101843031F4809111018BB11BB8DF
:1003F00080E0089580911101853031F480911101E0
:100400008BB11BB880E0089580911101863019F4FA
:100410002C9880E0089580911101873019F42D9A6D
:1004200080E0089580E00895282F909111019111A6
:100430000FC08DEC489F812D112486958695869559
:10044000880F682F660F660F860F481B842F08954C
:1004500090911101913041F48DEC489F812D112430
:10046000869586958695089580911101823079F45C
:100470008DEC689F812D1124869586958695880F31
:10048000982F990F990F890F681B862F08958091D7
:100490001101833041F48DEC689F812D11248695E4
:1004A00086958695089580911101843089F44DECEC
:1004B000249F412D1124842F869586958695482F5B
:1004C000440F842F880F880F840F281B822F0895D4
:1004D00080911101853041F49DEC299F812D1124DB
:1004E000869586958695089580911101863019F438
:1004F0002C9A80E0089580911101873019F42D9A8B
:1005000080E0089580E008951F920F920FB60F9239
:1005100011242F933F934F935F936F937F938F9308
:100520009F93AF93BF93EF93FF93F8948BB1837036
:100530008BB985B1807C85B980911101863008F036
:1005400074C080910F01882309F462C08091180162
:1005500080FF5EC080910E01882321F080910E0102
:100560008330B1F480911101882321F08091110131
:10057000813071F4209111013BB12E5F81E090E058
:1005800002C0880F991F2A95E2F7832B8BB94DC0C3
:1005900080910E01813041F080910E01843021F074
:1005A00080910E018630B1F480911101823021F0EA
:1005B00080911101833071F4209111013BB12E5FC4
:1005C00081E090E002C0880F991F2A95E2F7832B03
:1005D0008BB92BC080910E01823021F080910E01E9
:1005E000853019F580911101843021F0809111013D
:1005F0008530D9F4209111013BB12E5F81E090E06C
:1006000002C0880F991F2A95E2F7832B8BB90DC082
:10061000209111013BB12E5F81E090E002C0880F74
:10062000991F2A95E2F7832B8BB9809110018111D4
:100630000CC04091180160910501809106010E9453
:10064000140295B1892B85B93FC08091100181308A
:1006500071F4409101015091020160910301809178
:1006600004010E94140295B1892B85B92DC0809197
:100670001001823051F460911701809100010E94B5
:10068000AF0195B1892B85B91FC0809110018330CE
:10069000D9F480911201882361F040911501609195
:1006A0001401809113010E94140295B1892B85B920
:1006B0000BC04091160160911501809114010E94B8
:1006C000140295B1892B85B9809111018F5F8093B8
:1006D000110180911101883011F41092110188EC00
:1006E0008093B2007894FF91EF91BF91AF919F9169
:1006F0008F917F916F915F914F913F912F910F90CB
:100700000FBE0F901F9018951F920F920FB60F9269
:1007100011242F933F934F935F936F937F938F9306
:100720009F93AF93BF93EF93FF93F8940E94E200DF
:100730000E9430010E94920180910B01882329F0D0
:10074000809116018F5F8093160180911601843687
:1007500041F510921601809115018F5F809315016C
:10076000809115018C33E9F41092150180911401E8
:100770008F5F80931401809114018C3391F4109257
:10078000140181E080931201809113018F5F8093A7
:10079000130180911301843621F4109213011092F9
:1007A000120181E494EB9093850080938400789407
:1007B000FF91EF91BF91AF919F918F917F916F9139
:1007C0005F914F913F912F910F900FBE0F901F900F
:1007D00018951F920F920FB60F9211248F939F932B
:1007E000EF93FF93F8949091C600809108018031B7
:1007F000B0F4E0910A01F0E0E75EFE4F9083809153
:1008000008018F5F8093080180910A018F5F8093B8
:100810000A0180910A01803111F410920A01789442
:10082000FF91EF919F918F910F900FBE0F901F90AE
:1008300018951092C50088E68093C40082E08093EA
:10084000C00088E98093C10086E08093C20078945C
:100850000895E0ECF0E0908195FFFDCF8093C60015
:10086000089580911001833031F0809110018F5FE5
:1008700080931001089510921001089580910E0147
:10088000873019F410920E0105C080910E018F5F20
:1008900080930E0180910E01833018F410921001A4
:1008A000089580910E01863020F481E0809310013C
:1008B000089580910E01863019F482E08093100132
:1008C00008958FEF8AB91BB88FE384B915B887B143
:1008D0008C7F87B982E08093810081E080936F00F4
:1008E00096E09093B100809370008AEF8093B200FD
:1008F0000E9419040E9453007894C12CD12C7601D7
:1009000001E0B12C14E680911001882329F03FEF1B
:10091000C31AD30AE30AF30AC11482E1D8068AE7AC
:10092000E806F10449F41092100110920F011092A0
:100930000E01C12CD12C7601309B43C08091100157
:10094000833071F520C0EFE4F3EC3197F1F700C08C
:10095000000001968436910531F420910B01209519
:1009600020930B0112C0893C910578F010920B0185
:100970001092140110921501109216011092130199
:100980001092120102C080E090E03099DCCF8436F2
:100990009105A0F40E943104C12CD12C760111C024
:1009A0000E9431043099FECF87EA91E60197F1F772
:1009B00000C00000C12CD12C760103C0C12CD12C69
:1009C0007601319B95C081E080930F011092100158
:1009D0003199FECFE7EAF1E63197F1F700C0000068
:1009E000319B0AC00E943E043199FECF87EA91E60E
:1009F0000197F1F700C00000309BF2CF80910E010B
:100A000081110AC040911801609105018091060191
:100A10004F5F0E94920063C080910E01813051F4BB
:100A20004091180160910501809106016F5F0E945D
:100A3000920055C080910E01823051F4409118010E
:100A400060910501809106018F5F0E94920047C06E
:100A500080910E01833071F42091000140910401D6
:100A60006091030180910101909102018F5F0E94CA
:100A7000B60035C080910E01843071F420910001E0
:100A80004091040160910301809101019091020164
:100A90006F5F0E94B60023C080910E01853071F413
:100AA00020910001409104016091030180910101B6
:100AB000909102014F5F0E94B60011C080910E011B
:100AC000863069F420910001409104016091030196
:100AD00080910101909102012F5F0E94B600309930
:100AE000FECFE7EAF1E63197F1F700C0000078CFDA
:100AF00080910801882309F46AC0E0910901F0E0BF
:100B0000E75EFE4F808190E090930D0180930C0191
:100B100080910801815080930801809109018F5FC5
:100B20008093090180910901803111F4109209012B
:100B300087EA91E60197F1F700C00000C0E0D0E03D
:100B400041C0E0910901F0E0E75EFE4F408150E0D6
:100B5000405351092091080130E02150310912160B
:100B60001306ACF460E070E0802F9B2DFC01EE0FCB
:100B7000FF1F880F991F880F991F880F991F8E0FCD
:100B80009F1F6F5F7F4F6217730784F302C0802F30
:100B90009B2D489F9001499F300D589F300D112487
:100BA000C20FD31F8091080181508093080180916A
:100BB00009018F5F8093090180910901803111F44F
:100BC00010920901809108018111BBCF02C0C0E0E1
:100BD000D0E080910C0190910D01892B31F0809132
:100BE0000C0190910D010E94290480910C019091BB
:100BF0000D018337910541F4609105018091060153
:100C00004C2F0E94920094C080910C0190910D0194
:100C10008836910541F440911801609105018C2FAF
:100C20000E94920085C080910C0190910D018D363B
:100C3000910541F440911801809106016C2F0E94AA
:100C4000920076C080910C0190910D01873791053B
:100C500061F4409104016091030180910101909140
:100C600002012C2F0E94B60063C080910C0190916C
:100C70000D018937910551F4209100014091040143
:100C8000609103018C2F0E94B60052C080910C012C
:100C900090910D018D349105E9F45091000140913E
:100CA0000401E0910101F09102019F013695279521
:100CB00036952795ABE7B4E10E949D0696958795FA
:100CC000252F6C2F3E2F189F30191124832F0E943F
:100CD000B6002EC080910C0190910D0184369105D3
:100CE000F1F44091000150910301E0910101F09174
:100CF00002019F013695279536952795ABE7B4E11C
:100D00000E949D0696958795242F4C2F652F3E2F88
:100D1000189F30191124832F0E94B60009C08091BA
:100D20000C0190910D018437910511F4C0931001CD
:100D300010920D0110920C01E6CDA29FB001B39F5D
:100D4000C001A39F700D811D1124911DB29F700DD4
:0C0D5000811D1124911D0895F894FFCF1F
:080D5C0003E3070C0B21120058
:00000001FF
