:100000000C9434000C9451000C9451000C94510049
:100010000C9451000C9451000C9451000C9451001C
:100020000C9451000C94AD020C9451000C945100AE
:100030000C9451000C94AE030C9451000C9451009C
:100040000C9484020C9451000C9420040C945100E4
:100050000C9451000C9451000C9451000C945100DC
:100060000C9451000C94510011241FBECFEFD8E026
:10007000DEBFCDBF11E0A0E0B1E0E0E4FFE002C0F0
:1000800005900D92A830B107D9F721E0A8E0B1E0C2
:1000900001C01D92AB32B207E1F70E94E4050C9457
:1000A0009E070C94000085E08093B8001092B90080
:1000B000089584EA8093BC00ECEBF0E08081882313
:1000C000ECF7089584E88093BC00ECEBF0E08081CD
:1000D0008823ECF78091BB00089584EC8093BC00EA
:1000E000ECEBF0E080818823ECF78091BB00089571
:1000F0008093BB0084E88093BC00ECEBF0E080814F
:100100008823ECF708958A3030F020E08A502F5F82
:100110008A30E0F701C020E090E1299F900111248E
:10012000822B08951F93CF93DF93C82FD62F142FC0
:100130000E94590080ED0E94780080E00E947800C3
:10014000812F0E9483000E9478008D2F0E948300DF
:100150000E9478008C2F0E9483000E94780084E91E
:100160008093BC00DF91CF911F9108950F931F934F
:10017000CF93DF93C82FD62F142F022F0E94590040
:1001800080ED0E94780083E00E947800802F0E941A
:1001900083000E947800812F0E9483000E947800D3
:1001A0008D2F0E9483000E9478008C2F0E94830074
:1001B0000E94780084E98093BC00DF91CF911F9169
:1001C0000F910895FF920F931F93CF93DF930E9497
:1001D000590080ED0E94780080E00E9478000CEBCE
:1001E00010E00F2EF4E9FF2EF02DF801F0820E94AE
:1001F000590081ED0E9478000E946D00D82F0E9466
:100200006D00C82F0E946200F801F0829D2F929528
:100210009F70990F292F220F220F920FDF70D90F95
:10022000D0931A019C2F92959F70990F292F220F1E
:10023000220F920FCF70C90FC0930501982F92958E
:100240009F70990F292F220F220F920F8F70890F05
:1002500080930601DF91CF911F910F91FF90089538
:10026000EF92FF920F931F93CF93DF930E94590059
:1002700080ED0E94780083E00E9478000CEB10E093
:100280000F2EF4E9FF2EF02DF801F0820E945900A4
:1002900081ED0E9478000E946D00E82E0E946D00A2
:1002A000D82F0E946D00C82F0E946200F801F082D2
:1002B000E09200019D2F9695969596959E70292F18
:1002C000220F220F920FDF70D90FD09304019C2FC1
:1002D0009695969596959E70292F220F220F920F34
:1002E000CF70C90FC0930301282F22952F7027705C
:1002F00030E0A901440F551F220F331F220F331F77
:10030000220F331F240F351F8F70280F311D30939C
:10031000020120930101DF91CF911F910F91FF9076
:10032000EF9008951F93CF93DF930E94590080EDC3
:100330000E94780081E10E947800CCEBD0E014E9C3
:1003400018830E94590081ED0E9478000E9462008B
:10035000809319011883DF91CF911F910895282F61
:100360009091120191110FC08DEC689F812D112485
:10037000869586958695880F982F990F990F890FE6
:10038000681B862F089580911201813041F48DEC15
:10039000689F812D11248695869586950895809174
:1003A0001201823089F46DEC269F612D1124862F75
:1003B000869586958695682F660F862F880F880FFD
:1003C000860F281B822F089580911201833041F4FB
:1003D0009DEC299F812D11248695869586950895FB
:1003E00080911201843031F4809112018BB11BB8DD
:1003F00080E0089580911201853031F480911201DE
:100400008BB11BB880E0089580911201863019F4F9
:100410002C9880E0089580911201873019F42D9A6C
:1004200080E0089580E00895282F909112019111A5
:100430000FC08DEC489F812D112486958695869559
:10044000880F682F660F660F860F481B842F08954C
:1004500090911201913041F48DEC489F812D11242F
:10046000869586958695089580911201823079F45B
:100470008DEC689F812D1124869586958695880F31
:10048000982F990F990F890F681B862F08958091D7
:100490001201833041F48DEC689F812D11248695E3
:1004A00086958695089580911201843089F44DECEB
:1004B000249F412D1124842F869586958695482F5B
:1004C000440F842F880F880F840F281B822F0895D4
:1004D00080911201853041F49DEC299F812D1124DA
:1004E000869586958695089580911201863019F437
:1004F0002C9A80E0089580911201873019F42D9A8A
:1005000080E0089580E008951F920F920FB60F9239
:1005100011248F93F89480910C01811106C0809171
:100520000C01809580930C0111C080910B018230E9
:1005300040F080910C01809580930C0110920B018A
:1005400005C080910B018F5F80930B0178948F9190
:100550000F900FBE0F901F9018951F920F920FB61D
:100560000F9211242F933F934F935F936F937F9339
:100570008F939F93AF93BF93EF93FF93F8948BB1B7
:1005800083708BB985B1807C85B9809112018630EA
:1005900008F075C080911001882309F463C0809130
:1005A0000C01882309F45EC080910F01882321F09B
:1005B00080910F018330B1F480911201882321F0E2
:1005C00080911201813071F4209112013BB12E5FB4
:1005D00081E090E002C0880F991F2A95E2F7832BF3
:1005E0008BB94DC080910F01813041F080910F0196
:1005F000843021F080910F018630B1F48091120196
:10060000823021F080911201833071F42091120127
:100610003BB12E5F81E090E002C0880F991F2A95C0
:10062000E2F7832B8BB92BC080910F01823021F030
:1006300080910F01853019F580911201843021F0ED
:10064000809112018530D9F4209112013BB12E5FC7
:1006500081E090E002C0880F991F2A95E2F7832B72
:100660008BB90DC0209112013BB12E5F81E090E06B
:1006700002C0880F991F2A95E2F7832B8BB98091CE
:10068000110181110CC040911A0160910501809106
:1006900006010E94140295B1892B85B93FC0809153
:1006A0001101813071F4409101015091020160917A
:1006B0000301809104010E94140295B1892B85B930
:1006C0002DC080911101823051F460911901809107
:1006D00000010E94AF0195B1892B85B91FC080919F
:1006E00011018330D9F480911301882361F0409186
:1006F000160160911501809114010E94140295B1B8
:10070000892B85B90BC0409117016091160180912A
:1007100015010E94140295B1892B85B980911201AF
:100720008F5F8093120180911201883011F4109232
:10073000120188EC8093B2007894FF91EF91BF9101
:10074000AF919F918F917F916F915F914F913F9169
:100750002F910F900FBE0F901F9018951F920F9220
:100760000FB60F9211242F933F934F935F936F9384
:100770007F938F939F93AF93BF93EF93FF93F894DF
:100780000E94E2000E9430010E94920180911801B3
:10079000882329F0809117018F5F80931701809142
:1007A0001701843641F510921701809116018F5F71
:1007B00080931601809116018C33E9F41092160192
:1007C000809115018F5F80931501809115018C3305
:1007D00091F41092150181E080931301809114012E
:1007E0008F5F8093140180911401843621F410925C
:1007F00014011092130180911101833021F0809136
:100800001801882339F081E494EB9093850080935C
:10081000840004C010928500109284007894FF91A7
:10082000EF91BF91AF919F918F917F916F915F9168
:100830004F913F912F910F900FBE0F901F901895E1
:100840001F920F920FB60F9211248F939F93EF93E5
:10085000FF93F8949091C600809108018031B0F424
:10086000E0910A01F0E0E55EFE4F9083809108017F
:100870008F5F8093080180910A018F5F80930A0146
:1008800080910A01803111F410920A017894FF914D
:10089000EF919F918F910F900FBE0F901F90189521
:1008A0001092C50088E68093C40082E08093C00067
:1008B00088E98093C10086E08093C200789408950F
:1008C000E0ECF0E0908195FFFDCF8093C6000895A5
:1008D00080911101833031F0809111018F5F8093FD
:1008E0001101089510921101089580910F01873030
:1008F00019F410920F0105C080910F018F5F809352
:100900000F0180910F01833018F4109211010895A6
:1009100080910F01863020F481E0809311010895C9
:1009200080910F01863019F482E0809311010895BF
:1009300080910F01811116C080911A018B3351F003
:1009400040911A0160910501809106014F5F0E945C
:1009500092000895609105018091060140E00E9497
:100960009200089580910F018130B1F480910501CA
:100970008B3351F040911A0160910501809106017D
:100980006F5F0E949200089540911A0180910601C4
:1009900060E00E949200089580910F018230B1F4CE
:1009A00080910601873151F040911A016091050153
:1009B000809106018F5F0E94920008954091060188
:1009C0006091050180E00E949200089580910F01DE
:1009D0008330F9F4809101019091020183369105F1
:1009E00071F0209100014091040160910301809118
:1009F0000101909102018F5F0E94B600089520913D
:100A00000001409104016091030180E00E94B60062
:100A1000089580910F018430F1F4809103018C30AE
:100A200071F02091000140910401609103018091D7
:100A30000101909102016F5F0E94B600089520911C
:100A4000000140910401809101019091020161E057
:100A50000E94B600089580910F01853009F092C080
:100A6000809103018130C1F0809103018330A1F0B6
:100A700080910301853081F080910301873061F01E
:100A800080910301883041F0809103018A3021F088
:100A9000809103018C3081F4809104018F3161F4E5
:100AA0002091000160910301809101019091020168
:100AB00041E00E94B600089580910301843061F006
:100AC00080910301863041F080910301893021F04B
:100AD000809103018B3081F4809104018E3161F4A7
:100AE0002091000160910301809101019091020128
:100AF00041E00E94B6000895809103018230C1F464
:100B0000809101019091020183709927892B81F4D2
:100B1000809104018D3161F4209100016091030105
:100B2000809101019091020141E00E94B600089578
:100B3000809103018230C1F4809101019091020102
:100B400083709927892B81F0809104018C3161F4A5
:100B500020910001609103018091010190910201B7
:100B600041E00E94B60008952091000140910401E7
:100B70006091030180910101909102014F5F0E94F9
:100B8000B600089580910F018630E9F4809100014C
:100B9000873071F0209100014091040160910301C0
:100BA00080910101909102012F5F0E94B60008958B
:100BB0004091040160910301809101019091020133
:100BC00021E00E94B60008958FEF8AB91BB88FE329
:100BD00084B915B887B1807F87B983E085BD81E08E
:100BE00080936E0092E09093810080936F0096E076
:100BF0009093B100809370008AEF8093B2000E94BE
:100C000050040E9453007894C12CD12C7601BB244F
:100C1000B39401E010E080911101882329F02FEFB7
:100C2000C21AD20AE20AF20AC11482E1D8068AE79D
:100C3000E806F10429F410921101C12CD12C76019F
:100C4000309B0DC00E9468043099FECFE7EAF1E6C0
:100C50003197F1F700C00000C12CD12C7601329BF6
:100C60006CC080911101833021F58091180180952D
:100C70008093180180E090E016C0EFE4F3EC319728
:100C8000F1F700C000000196893C910560F01092D8
:100C9000180110921501109216011092170110926E
:100CA0001401109213013299E8CFC12CD12C760196
:100CB00044C0B0921001109211013299FECF87EA20
:100CC00091E60197F1F700C0000080E090E0DC01C0
:100CD000329B11C00E9475043299FECFE7EAF1E61B
:100CE0003197F1F700C00000309907C081E090E033
:100CF000A0E0B0E0EDCF309B0FC00E949804309987
:100D0000FECF87EA91E60197F1F700C0000081E08D
:100D100090E0A0E0B0E0DCCF0196A11DB11D8034D1
:100D2000EBE49E07ECE4AE07B10591F610921001DA
:100D300010920F01C12CD12C7601809108018823DB
:100D400009F469C0E0910901F0E0E55EFE4F8081A1
:100D500090E090930E0180930D01809108018150E5
:100D600080930801809109018F5F80930901809130
:100D70000901803111F41092090187EA91E6019787
:100D8000F1F700C00000C0E0D0E040C0E0910901F0
:100D9000F0E0E55EFE4FE081F0E0F0976091080141
:100DA00070E06150710916161706ACF420E030E0CF
:100DB000802F912FAC01440F551F880F991F880F6A
:100DC000991F880F991F840F951F2F5F3F4F26177C
:100DD000370784F302C0802F912FE89F9001E99F8D
:100DE000300DF89F300D1124C20FD31F80910801E0
:100DF000815080930801809109018F5F80930901E0
:100E000080910901803111F410920901809108014B
:100E10008111BCCF02C0C0E0D0E080910D01909163
:100E20000E01892B31F080910D0190910E010E94ED
:100E3000600480910D0190910E018337910541F47A
:100E400060910501809106014C2F0E94920071C0B3
:100E500080910D0190910E018836910541F44091E9
:100E60001A01609105018C2F0E94920062C080914E
:100E70000D0190910E018D36910541F440911A01BA
:100E8000809106016C2F0E94920053C080910D0149
:100E900090910E018737910561F4409104016091B2
:100EA000030180910101909102012C2F0E94B60054
:100EB00040C080910D0190910E018937910551F448
:100EC0002091000140910401609103018C2F0E9448
:100ED000B6002FC080910D0190910E018D349105C7
:100EE00061F42091000140910401809101019091F1
:100EF00002016C2F0E94B6001CC080910D019091E0
:100F00000E018436910561F4209100016091030186
:100F100080910101909102014C2F0E94B60009C0FE
:100F200080910D0190910E018437910511F4C093C9
:100F3000110110920E0110920D016DCEF894FFCFA9
:080F400003E3070C0B21120072
:00000001FF
