:100000000C9434000C9451000C9451000C94510049
:100010000C9451000C9451000C9451000C9451001C
:100020000C9451000C9451000C9451000C9451000C
:100030000C9451000C9410010C9451000C9451003C
:100040000C9451000C9451000C9451000C945100EC
:100050000C9451000C9451000C9451000C945100DC
:100060000C9451000C94510011241FBECFEFD8E026
:10007000DEBFCDBF11E0A0E0B1E0EEE3F3E002C0EF
:1000800005900D92A630B107D9F721E0A6E0B1E0C6
:1000900001C01D92AA32B207E1F70E9491010C94AF
:1000A0009D010C94000084B18C6284B985B18C638D
:1000B00085B980E58CBD81E08DBD0895CF92DF923A
:1000C000EF92FF922A9820E030E08EBD0DB407FE3B
:1000D000FDCF6A017B01022E04C0F694E794D79409
:1000E000C7940A94D2F7CEBC0DB407FEFDCF285FAB
:1000F0003F4F2032310549F72A9AFF90EF90DF9069
:10010000CF900895CF93C1E040E050E0BA018C2F2A
:100110000E945E00CF5FC930B9F740E050E0BA01FD
:1001200089E00E945E004FE05FE0BA018AE00E9431
:100130005E0047E057E0BA018BE00E945E0041E0BC
:1001400051E0BA018CE00E945E00CF910895CF92F9
:10015000DF92EF92FF920F931F93FB0121E0260F96
:10016000209304018C01992314F4095F1F4F076049
:1001700087709078992324F40197886F9F6F019678
:10018000081B190B012E000C220B330B0115110556
:1001900021053105D9F00150110921093109D9F0A2
:1001A00080E090E042E050E060E070E0440F551FD6
:1001B000661F771F01966C01092E000CEE08FF08E0
:1001C000C016D106E206F30689F709C041E050E007
:1001D00060E070E004C042E050E060E070E0EE0FEC
:1001E000FF1FEE0FFF1FEA5FFE4F80819181A2810A
:1001F000B381482B592B6A2B7B2B4083518362831D
:1002000073834081518162817381809104010E94D6
:100210005E001F910F91FF90EF90DF90CF900895B7
:100220001F920F920FB60F9211242F933F934F936B
:100230005F936F937F938F939F93AF93BF93EF934E
:10024000FF93F89460E070E080E090E00E94A700E7
:100250008091280190912901809734F08EEF9FEFD3
:1002600090930301809302018091260190912701D0
:10027000079731F48FEF9FEF909301018093000176
:1002800080912801909129011816190634F081E017
:1002900090E0909303018093020180912601909158
:1002A0002701892B31F481E090E090930101809344
:1002B0000001209128013091290180910201909143
:1002C0000301820F931F90932901809328012091AD
:1002D0002601309127018091000190910101820F48
:1002E000931F9093270180932601609126017091BE
:1002F000270180912801909129010E94A7007894FC
:10030000FF91EF91BF91AF919F918F917F916F91ED
:100310005F914F913F912F910F900FBE0F901F90C3
:1003200018950E9453000E94820083E08093810010
:0E03300081E080936F007894FFCFF894FFCFA8
:06033E00010001000100B6
:00000001FF
