:100000000C9434000C9449000C9449000C94490061
:100010000C9449000C9449000C9449000C9449003C
:100020000C9449000C9449000C9449000C9449002C
:100030000C9449000C9449000C9449000C9449001C
:100040000C9449000C9449000C9449000C9449000C
:100050000C9449000C9449000C9449000C944900FC
:100060000C9449000C94490011241FBECFEFD8E036
:10007000DEBFCDBF11E0A0E0B1E0E2E3F4E002C0FA
:1000800005900D92AE30B107D9F70E9495010C94FE
:1000900017020C9400002B9A81EE94E00197F1F77F
:1000A00000C000002B9808952B981BB88BB1886373
:1000B0008BB90E944B001BB8599A0E944B000895BF
:1000C00081E08BB90E944B0087EA91E60197F1F736
:1000D00000C0000008952B981BB82BB134E0839F1B
:1000E000C00111242061822B8BB90E944B0008951E
:1000F00092E095B98BB90E944B002998089592E03F
:1001000095B98BB90E944B00299808950F931F93BE
:10011000CF93FC018081882359F08F01C0E00E94B9
:100120007800CF5FF801EC0FF11D80818111F7CFCE
:10013000CF911F910F910895FF920F931F93CF932B
:10014000DF9388E48BB90E944B0012E015B91BB80D
:100150000E944B001BB80E944B001BB80E944B0032
:100160000F2EFCE1FF2EF02DFBB80E944B00C4E0E7
:10017000CBB90E944B00CBB90E944B00CBB90E9477
:100180004B00CBB90E944B0015B8D0E8DBB90E94F8
:100190004B0080E58BB90E944B0015B9CBB90E948A
:1001A0004B00CBB90E944B00CBB90E944B0007E03B
:1001B0000BB90E944B001BB80E944B001BB80E9459
:1001C0004B001BB80E944B001BB80E944B0015B897
:1001D000DBB90E944B0088E58BB90E944B0015B932
:1001E000CBB90E944B00CBB90E944B00CBB90E9407
:1001F0004B00FBB80E944B001BB80E944B001BB881
:100200000E944B001BB80E944B001BB80E944B0081
:1002100015B8DBB90E944B0080E68BB90E944B00F9
:1002200015B91BB80E944B001BB80E944B001BB8AD
:100230000E944B000BB90E944B00CBB90E944B00AF
:10024000CBB90E944B00CBB90E944B00CBB90E94A6
:100250004B0015B8DBB90E944B00DF91CF911F9185
:100260000F91FF900895CF93DF93C8E2D0E081E033
:100270000E946B002197D9F7DF91CF9108951BB8A9
:100280009BB19460692B880F682B6BB90E944B005F
:1002900008951BB89BB19860492B660F462B24E04C
:1002A000829FC0011124482B4BB90E944B00089536
:1002B000CF931AB81BB886E085B987EA91E6019713
:1002C000F1F700C000000E944B00C9B18FEF8AB95E
:1002D00015B880E00E946B008FEF8C0FCF910895CE
:1002E00082E08BB90E944B0008950F931F93CF9328
:1002F000DF93182F062FD42F0E947001DD2339F0D1
:10030000C0E081E00E946B00CF5FDC13FACF0111E7
:100310000E94330182E085B91BB90E944B002998E5
:10032000DF91CF911F910F91089587EA91E6019790
:10033000F1F700C000008FEF84B98AB915B80E94A8
:1003400054000E94600060E081E00E943F0140E0B4
:1003500060E081E00E9449010E949C0080E091E001
:100360000E9486000E945801C82F0E9433018C2FE2
:100370000E947F009AE220E53EEF80E0915020400D
:1003800030408040D9F700000E9460000E94700158
:10039000A12C6894DD24D1F801E010E0E12CF12CCF
:1003A000E701DD27D595C795BC2E902F9270C92EF9
:1003B000C70183709078992324F401978C6F9F6F05
:1003C00001964C2F6C2D8F5F0E9475012FE1E21674
:1003D000F10441F0A801112314F44F5F5F4F5595CC
:1003E000479501C04A2D6D2D627083E20E94750110
:1003F00035E03B1518F44C2F465002C04C2F465F99
:100400006C2D80E10E9475018FE392E42FE0815012
:1004100090402040E1F700C000003FEFE31AF30AEC
:100420000F5F1F4FD39482E2D812BACFB2CFF894A5
:02043000FFCFFC
:0E0432007072697665742C206D69722100006D
:00000001FF
