:020000020000FC
:10000000549A559A569A579A20982198229A239A48
:10001000289A299A2A9A2B9840D018990AD0199987
:1000200010D02A982B9A39D0189907D019990DD049
:10003000F1CF0FD00E944500089512D00E944500D4
:10004000089515D00E944900089518D00E944900D3
:1000500008955C9B0C942E005C9808955C9A08951A
:100060005D9B0C9435005D9808955D9A08955E9BA4
:100070000C943C005E9808955E9A08955F9B0C94E2
:1000800043005F9808955F9A089507D01899FDCFAF
:10009000089503D01999FDCF08951FEF2FEF31E098
:0E00A0001A95F1F72A95E1F73A95D1F70895F0
:00000001FF
