:020000020000FC
:020000001BC023
:040024000C944300F5
:100034000C9456000FEF0DBF08E00EBF0FEF0AB986
:100044000FEF04B900E005B920E030E040E050E0F3
:1000540010E104E00093810001E000936F0008E0E8
:10006400009385000093840002E00093B10001E056
:100074000093700000E00093B200A0E060E0789488
:10008400FFCFF894103171F0110F012F009505B9CD
:1000940001FF2BB902FF3BB903FF4BB904FF5BB966
:1000A400789418951395F0CFF8946F3F29F06395E1
:1000B4000C94640078941895A39563950C9464004B
:1000C40078941895862F9A2F70E0933070F50E94DB
:1000D400AE00572F70E09130E0F4843610F50E94A2
:1000E400AE00472F70E08A3080F40E94AE00372FB4
:1000F40070E0813030F40E94AE00272F70E07894D5
:100104001895815073950C947B008A5073950C94C8
:100114007500843630F4BCE98B0F9A9573950C9472
:100124006D00845673950C946D00933031F00C94EB
:100134009B00883E30F40C94A800883E10F40C9484
:1001440069009350885E73950C946700B8E19450ED
:100154008B0F73950C946700703091F0713091F0AF
:10016400723091F0733091F0743091F0753091F0F9
:10017400763091F0773091F0783091F0793091F0D9
:100184007FE3089576E008957BE508957FE408957C
:1001940076E608957DE608957DE7089577E008956D
:0801A4007FE708957FE608954E
:00000001FF
